{
  "contractName": "RationSupplyChain",
  "abi": [
    {
      "anonymous": false,
      "inputs": [
        {
          "indexed": false,
          "internalType": "string",
          "name": "txHash",
          "type": "string"
        },
        {
          "indexed": false,
          "internalType": "string",
          "name": "timestamp",
          "type": "string"
        },
        {
          "indexed": false,
          "internalType": "string",
          "name": "from",
          "type": "string"
        },
        {
          "indexed": false,
          "internalType": "string",
          "name": "to",
          "type": "string"
        },
        {
          "indexed": false,
          "internalType": "string",
          "name": "grain",
          "type": "string"
        },
        {
          "indexed": false,
          "internalType": "uint256",
          "name": "quantity",
          "type": "uint256"
        },
        {
          "indexed": false,
          "internalType": "string",
          "name": "txType",
          "type": "string"
        }
      ],
      "name": "TransactionRecorded",
      "type": "event"
    },
    {
      "inputs": [
        {
          "internalType": "uint256",
          "name": "",
          "type": "uint256"
        }
      ],
      "name": "transactions",
      "outputs": [
        {
          "internalType": "string",
          "name": "txHash",
          "type": "string"
        },
        {
          "internalType": "string",
          "name": "timestamp",
          "type": "string"
        },
        {
          "internalType": "string",
          "name": "from",
          "type": "string"
        },
        {
          "internalType": "string",
          "name": "to",
          "type": "string"
        },
        {
          "internalType": "string",
          "name": "grain",
          "type": "string"
        },
        {
          "internalType": "uint256",
          "name": "quantity",
          "type": "uint256"
        },
        {
          "internalType": "string",
          "name": "txType",
          "type": "string"
        }
      ],
      "stateMutability": "view",
      "type": "function",
      "constant": true
    },
    {
      "inputs": [
        {
          "internalType": "string",
          "name": "_timestamp",
          "type": "string"
        },
        {
          "internalType": "string",
          "name": "_from",
          "type": "string"
        },
        {
          "internalType": "string",
          "name": "_to",
          "type": "string"
        },
        {
          "internalType": "string",
          "name": "_grain",
          "type": "string"
        },
        {
          "internalType": "uint256",
          "name": "_quantity",
          "type": "uint256"
        },
        {
          "internalType": "string",
          "name": "_txType",
          "type": "string"
        }
      ],
      "name": "recordTransaction",
      "outputs": [
        {
          "internalType": "string",
          "name": "",
          "type": "string"
        }
      ],
      "stateMutability": "nonpayable",
      "type": "function"
    },
    {
      "inputs": [],
      "name": "getTransactionCount",
      "outputs": [
        {
          "internalType": "uint256",
          "name": "",
          "type": "uint256"
        }
      ],
      "stateMutability": "view",
      "type": "function",
      "constant": true
    },
    {
      "inputs": [
        {
          "internalType": "uint256",
          "name": "index",
          "type": "uint256"
        }
      ],
      "name": "getTransaction",
      "outputs": [
        {
          "internalType": "string",
          "name": "txHash",
          "type": "string"
        },
        {
          "internalType": "string",
          "name": "timestamp",
          "type": "string"
        },
        {
          "internalType": "string",
          "name": "from",
          "type": "string"
        },
        {
          "internalType": "string",
          "name": "to",
          "type": "string"
        },
        {
          "internalType": "string",
          "name": "grain",
          "type": "string"
        },
        {
          "internalType": "uint256",
          "name": "quantity",
          "type": "uint256"
        },
        {
          "internalType": "string",
          "name": "txType",
          "type": "string"
        }
      ],
      "stateMutability": "view",
      "type": "function",
      "constant": true
    }
  ],
  "bytecode": "0x608060405234801561001057600080fd5b50610fca806100206000396000f3fe608060405234801561001057600080fd5b506004361061004c5760003560e01c80630b78c5bc146100515780632e7700f01461007a57806333ea3dc81461008f5780639ace38c2146100b5575b600080fd5b61006461005f366004610c1d565b6100c8565b6040516100719190610dad565b60405180910390f35b610082610242565b6040516100719190610e87565b6100a261009d366004610cf1565b610248565b6040516100719796959493929190610dc7565b6100a26100c3366004610cf1565b610671565b606060006100d8878787876109f3565b6040805160e08101825282815260208082018c90529181018a9052606081018990526080810188905260a0810187905260c0810186905260008054600181018255908052815180519495509193849360079092027f290decd9548b62a8d60345a988386fc84ba6bc95484008f6362f93160ef3e563019261015d928492910190610b03565b5060208281015180516101769260018501920190610b03565b5060408201518051610192916002840191602090910190610b03565b50606082015180516101ae916003840191602090910190610b03565b50608082015180516101ca916004840191602090910190610b03565b5060a0820151600582015560c082015180516101f0916006840191602090910190610b03565b5050507f7d7fdceec73992ba88f6e219d16c316cbe5ac9d5ff900fc0a84ad49b492672e0828a8a8a8a8a8a60405161022e9796959493929190610dc7565b60405180910390a150979650505050505050565b60005490565b60608060608060606000606060008054905088106102815760405162461bcd60e51b815260040161027890610e50565b60405180910390fd5b60008089815481106102a357634e487b7160e01b600052603260045260246000fd5b90600052602060002090600702016040518060e00160405290816000820180546102cc90610f03565b80601f01602080910402602001604051908101604052809291908181526020018280546102f890610f03565b80156103455780601f1061031a57610100808354040283529160200191610345565b820191906000526020600020905b81548152906001019060200180831161032857829003601f168201915b5050505050815260200160018201805461035e90610f03565b80601f016020809104026020016040519081016040528092919081815260200182805461038a90610f03565b80156103d75780601f106103ac576101008083540402835291602001916103d7565b820191906000526020600020905b8154815290600101906020018083116103ba57829003601f168201915b505050505081526020016002820180546103f090610f03565b80601f016020809104026020016040519081016040528092919081815260200182805461041c90610f03565b80156104695780601f1061043e57610100808354040283529160200191610469565b820191906000526020600020905b81548152906001019060200180831161044c57829003601f168201915b5050505050815260200160038201805461048290610f03565b80601f01602080910402602001604051908101604052809291908181526020018280546104ae90610f03565b80156104fb5780601f106104d0576101008083540402835291602001916104fb565b820191906000526020600020905b8154815290600101906020018083116104de57829003601f168201915b5050505050815260200160048201805461051490610f03565b80601f016020809104026020016040519081016040528092919081815260200182805461054090610f03565b801561058d5780601f106105625761010080835404028352916020019161058d565b820191906000526020600020905b81548152906001019060200180831161057057829003601f168201915b50505050508152602001600582015481526020016006820180546105b090610f03565b80601f01602080910402602001604051908101604052809291908181526020018280546105dc90610f03565b80156106295780601f106105fe57610100808354040283529160200191610629565b820191906000526020600020905b81548152906001019060200180831161060c57829003601f168201915b5050505050815250509050806000015181602001518260400151836060015184608001518560a001518660c00151975097509750975097509750975050919395979092949650565b6000818154811061068157600080fd5b90600052602060002090600702016000915090508060000180546106a490610f03565b80601f01602080910402602001604051908101604052809291908181526020018280546106d090610f03565b801561071d5780601f106106f25761010080835404028352916020019161071d565b820191906000526020600020905b81548152906001019060200180831161070057829003601f168201915b50505050509080600101805461073290610f03565b80601f016020809104026020016040519081016040528092919081815260200182805461075e90610f03565b80156107ab5780601f10610780576101008083540402835291602001916107ab565b820191906000526020600020905b81548152906001019060200180831161078e57829003601f168201915b5050505050908060020180546107c090610f03565b80601f01602080910402602001604051908101604052809291908181526020018280546107ec90610f03565b80156108395780601f1061080e57610100808354040283529160200191610839565b820191906000526020600020905b81548152906001019060200180831161081c57829003601f168201915b50505050509080600301805461084e90610f03565b80601f016020809104026020016040519081016040528092919081815260200182805461087a90610f03565b80156108c75780601f1061089c576101008083540402835291602001916108c7565b820191906000526020600020905b8154815290600101906020018083116108aa57829003601f168201915b5050505050908060040180546108dc90610f03565b80601f016020809104026020016040519081016040528092919081815260200182805461090890610f03565b80156109555780601f1061092a57610100808354040283529160200191610955565b820191906000526020600020905b81548152906001019060200180831161093857829003601f168201915b50505050509080600501549080600601805461097090610f03565b80601f016020809104026020016040519081016040528092919081815260200182805461099c90610f03565b80156109e95780601f106109be576101008083540402835291602001916109e9565b820191906000526020600020905b8154815290600101906020018083116109cc57829003601f168201915b5050505050905087565b6060610a2f8585858542604051602001610a11959493929190610d35565b6040516020818303038152906040528051906020012060001c610a58565b604051602001610a3f9190610d83565b6040516020818303038152906040529050949350505050565b60408051818152606081810183529160009190602082018180368337019050509050603f5b8015610afc57610a8e600a85610f3e565b610a99906030610e90565b60f81b828281518110610abc57634e487b7160e01b600052603260045260246000fd5b60200101906001600160f81b031916908160001a905350610ade600a85610ea8565b935083610aea57610afc565b80610af481610eec565b915050610a7d565b5092915050565b828054610b0f90610f03565b90600052602060002090601f016020900481019282610b315760008555610b77565b82601f10610b4a57805160ff1916838001178555610b77565b82800160010185558215610b77579182015b82811115610b77578251825591602001919060010190610b5c565b50610b83929150610b87565b5090565b5b80821115610b835760008155600101610b88565b600082601f830112610bac578081fd5b813567ffffffffffffffff80821115610bc757610bc7610f7e565b604051601f8301601f191681016020018281118282101715610beb57610beb610f7e565b604052828152848301602001861015610c02578384fd5b82602086016020830137918201602001929092529392505050565b60008060008060008060c08789031215610c35578182fd5b863567ffffffffffffffff80821115610c4c578384fd5b610c588a838b01610b9c565b97506020890135915080821115610c6d578384fd5b610c798a838b01610b9c565b96506040890135915080821115610c8e578384fd5b610c9a8a838b01610b9c565b95506060890135915080821115610caf578384fd5b610cbb8a838b01610b9c565b94506080890135935060a0890135915080821115610cd7578283fd5b50610ce489828a01610b9c565b9150509295509295509295565b600060208284031215610d02578081fd5b5035919050565b60008151808452610d21816020860160208601610ebc565b601f01601f19169290920160200192915050565b60008651610d47818460208b01610ebc565b865190830190610d5b818360208b01610ebc565b8651910190610d6e818360208a01610ebc565b01938452505060208201526040019392505050565b600061060f60f31b82528251610da0816002850160208701610ebc565b9190910160020192915050565b600060208252610dc06020830184610d09565b9392505050565b600060e08252610dda60e083018a610d09565b8281036020840152610dec818a610d09565b90508281036040840152610e008189610d09565b90508281036060840152610e148188610d09565b90508281036080840152610e288187610d09565b90508460a084015282810360c0840152610e428185610d09565b9a9950505050505050505050565b6020808252601a908201527f5472616e73616374696f6e20646f6573206e6f74206578697374000000000000604082015260600190565b90815260200190565b60008219821115610ea357610ea3610f52565b500190565b600082610eb757610eb7610f68565b500490565b60005b83811015610ed7578181015183820152602001610ebf565b83811115610ee6576000848401525b50505050565b600081610efb57610efb610f52565b506000190190565b600281046001821680610f1757607f821691505b60208210811415610f3857634e487b7160e01b600052602260045260246000fd5b50919050565b600082610f4d57610f4d610f68565b500690565b634e487b7160e01b600052601160045260246000fd5b634e487b7160e01b600052601260045260246000fd5b634e487b7160e01b600052604160045260246000fdfea2646970667358221220a6e65d0e78dcd285fc8e52ed462992e2770f2cd3194e4f77a70005e8dd01d28c64736f6c63430008000033",
  "immutableReferences": {},
  "source": "// SPDX-License-Identifier: MIT\r\npragma solidity ^0.8.0;\r\n\r\ncontract RationSupplyChain {\r\n    struct Transaction {\r\n        string txHash;\r\n        string timestamp;\r\n        string from;\r\n        string to;\r\n        string grain;\r\n        uint256 quantity;\r\n        string txType;\r\n    }\r\n    \r\n    Transaction[] public transactions;\r\n    \r\n    event TransactionRecorded(\r\n        string txHash,\r\n        string timestamp,\r\n        string from,\r\n        string to,\r\n        string grain,\r\n        uint256 quantity,\r\n        string txType\r\n    );\r\n    \r\n    function recordTransaction(\r\n        string memory _timestamp,\r\n        string memory _from,\r\n        string memory _to,\r\n        string memory _grain,\r\n        uint256 _quantity,\r\n        string memory _txType\r\n    ) public returns (string memory) {\r\n        string memory txHash = generateHash(_from, _to, _grain, _quantity);\r\n        \r\n        Transaction memory newTx = Transaction({\r\n            txHash: txHash,\r\n            timestamp: _timestamp,\r\n            from: _from,\r\n            to: _to,\r\n            grain: _grain,\r\n            quantity: _quantity,\r\n            txType: _txType\r\n        });\r\n        \r\n        transactions.push(newTx);\r\n        \r\n        emit TransactionRecorded(\r\n            txHash,\r\n            _timestamp,\r\n            _from,\r\n            _to,\r\n            _grain,\r\n            _quantity,\r\n            _txType\r\n        );\r\n        \r\n        return txHash;\r\n    }\r\n    \r\n    function generateHash(\r\n        string memory _from,\r\n        string memory _to,\r\n        string memory _grain,\r\n        uint256 _quantity\r\n    ) private view returns (string memory) {\r\n        return string(abi.encodePacked(\r\n            \"0x\",\r\n            toHexString(uint256(keccak256(abi.encodePacked(\r\n                _from, _to, _grain, _quantity, block.timestamp\r\n            ))))\r\n        ));\r\n    }\r\n    \r\n    function toHexString(uint256 value) private pure returns (string memory) {\r\n        bytes memory buffer = new bytes(64);\r\n        for (uint256 i = 63; i > 0; i--) {\r\n            buffer[i] = bytes1(uint8(48 + uint256(value % 10)));\r\n            value /= 10;\r\n            if (value == 0) break;\r\n        }\r\n        return string(buffer);\r\n    }\r\n    \r\n    function getTransactionCount() public view returns (uint256) {\r\n        return transactions.length;\r\n    }\r\n    \r\n    function getTransaction(uint256 index) public view returns (\r\n        string memory txHash,\r\n        string memory timestamp,\r\n        string memory from,\r\n        string memory to,\r\n        string memory grain,\r\n        uint256 quantity,\r\n        string memory txType\r\n    ) {\r\n        require(index < transactions.length, \"Transaction does not exist\");\r\n        Transaction memory tx = transactions[index];\r\n        return (tx.txHash, tx.timestamp, tx.from, tx.to, tx.grain, tx.quantity, tx.txType);\r\n    }\r\n}\r\n",
  "sourcePath": "C:\\Users\\sharm\\OneDrive\\Desktop\\justration\\Backend\\contracts\\RationSupplyChain.sol",
  "compiler": {
    "name": "solc",
    "version": "0.8.0+commit.c7dfd78e.Emscripten.clang"
  },
  "schemaVersion": "3.4.16",
  "updatedAt": "2026-01-27T03:43:37.448Z",
  "networkType": "ethereum",
  "devdoc": {
    "kind": "dev",
    "methods": {},
    "version": 1
  },
  "userdoc": {
    "kind": "user",
    "methods": {},
    "version": 1
  }
}